:02000000A92A2B
:0400060000000800EE
:10000A0083120313F801F9011030FC00710DF80D89
:10001A00F90D7408F8027508031C750FF902031824
:10002A001D287408F80775080318750FF9070310D7
:0A003A00F00DF10DFC0B0B2808007F
:10004400103083120313FD00FD0B26280000080066
:10005400083083120313FC002330FD00FD0B30280D
:06006400FC0B302808002F
:10006A0083160313D61B3C28831286123E2883125A
:10007A0086168316561B44288312061246288312B4
:10008A0006168316D61A4C28831286114E28831216
:10009A0086158316561A5428831206115628831277
:1000AA00061583163A185C28831206145E288312F2
:1000BA0006108614032086108316D6196728831221
:1000CA008612692883128616831656196F28831298
:1000DA0006127128831206168316D61877288312F9
:1000EA008611792883128615831656187F2883125B
:1000FA00061181288312061583163A188728831257
:10010A000614892883120610861403208610831683
:0C011A003A1C91282A209228222008007C
:1001260083160313D901053059020318A12859086B
:100136005807840020308000D90A962859085807A5
:1001460084008001D90359085807DA000A30F40000
:10015600F5015608F0005708F10005207808F00070
:100166007908F1003030F00783165A0884007008C9
:1001760080000A30F400F5015608F0005708F10037
:10018600052070088316D6007108D7000030710666
:10019600031DCF2800307006031DD228D428D903AA
:0401A600A62808007F
:1001AA00831603133A104D08D600352083163A14E5
:0201BA0008003B
:0E01BC008316031331088A0030088200080001
:1001CA0083160313AE0A0319AF0A80302F06F00014
:1001DA0080307002031DF3283C302E02031CFC28D9
:1001EA008312EE0A0319EF0A8316AE01AF018030BB
:1001FA0083126F06F00080307002031D06293C301E
:10020A006E02031C0F298316B20A0319B30A83125A
:10021A00EE01EF01803083163306F0008030700261
:10022A00031D192918303202031C2029B80A0319A0
:10023A00B90AB201B30180303906F0008030700289
:10024A00031D29291F303802031C3029B60A031955
:10025A00B70AB801B90180303706F0008030700261
:10026A00031D39290D303602031C4029B40A03192B
:08027A00B50AB801B901080042
:1002820083160313D201D3014D08D4004E08D500C2
:1002920080304E06F00080307002031D522900307B
:1002A2004D02031860290130D2000030D3004D08FE
:1002B200003CD4004E08031C013ED501D50254086F
:1002C200D6005508D7004F08D80093200630D0003A
:1002D2000030D1005108003C031D71295008003C38
:1002E20003188C2950084F07F20001305002F00029
:1002F2000030031C013E5102F10070084F078400D8
:100302000008F00072088400700880000130D002FA
:10031200031CD1036B294F0884002030800052084F
:1003220053040319AA29D001D10150084F078400B0
:100332000008203A031DA129D00A0319D10A9629DF
:100342000130D002031CD10350084F0784002D3026
:04035200800008001F
:10035600E5204130FC00EE30FD00FD0BB029FC0B22
:10036600B02900003208CD003308CE006030CF003F
:10037600412183126408A0006508A1006E08831657
:10038600CD0083126F088316CE006730CF0041215F
:1003960083126B08A4006C08A50083162E08CD00F6
:1003A6002F08CE00A730CF0041212B088312A800CA
:1003B60083162C088312A90083163808CD00390845
:1003C600CE00A030CF00412124088312AB00831653
:1003D60025088312AC0083163608CD003708CE00F8
:1003E600C230CF00412146088312AF00831647086A
:1003F6008312B00083163408CD003508CE00BB301A
:10040600CF0041213F088312B300831640088312B0
:04041600B400080026
:10041A001F2A803083160313C900322AC030C9004C
:10042A00322A9430C900322AD430C900322A8030A4
:10043A00C900322A831603134908013A03190E2AFE
:10044A004908023A0319132A4908033A0319162AD2
:10045A004908043A0319192A1C2A4A03F0004908D0
:10046A00F0077008C9007008D600352083163A10C4
:10047A00CC014C084B078400000803194C2A4C088D
:10048A004B0784000008CD00D520CC0A3E2A3A1436
:02049A00080058
:10049C00DE208A110A128000840AB00A0319B10AFC
:0804AC00F003031D4E2A0800B5
:1004B400831603138610061006118611061286127F
:1004C40083128610061086120612861106112A203F
:1004D4002A202A20861506158614032086102A2031
:1004E4008614032086102A208614032086102A20CE
:1004F40006118614032086102A20861403208610F1
:10050400861186168614032086102A208612061564
:1005140086140320861006118614032086102A20D0
:1005240086140320861006158614032086102A20BC
:1005340006118614032086108616061686150615DF
:0E0544008614032086102A2083163A1408001D
:10055200CC240F308316031385008601FF308700F9
:1005620007309F0083129F015A220130D6003520A6
:100572000C308316D600352083120518D32A831631
:10058200BA1CD32ABA100630831253020318CB2A9C
:10059200D30ACD2A0130D30001308316D60035208C
:1005A2000130DF008312051CDA2A8316BA18DA2A10
:1005B200BA1483128518DF2ADF01D3015F080319F9
:1005C2000C2B01308316C9000130CA005A30CB000F
:1005D2000D220230C9000130CA005430CB000D2276
:1005E200AB2101308316C9000730CA002030CB008E
:1005F2000D220230C9000730CA002B30CB000D2279
:100602008230FC00DD30FD00FD0B052BFC0B052BC1
:1006120000000000342BAB2101308316C9000130E9
:10062200CA004C30CB000D220230C9000130CA0092
:100632003C30CB000D220130C9000730CA00203007
:10064200CB000D220230C9000730CA002B30CB008C
:100652000D228230FC00DD30FD00FD0B2E2BFC0B49
:100662002E2B00000000831253080319842C6B2CDC
:1006720005193F2B8316B20A0319B30A831285198F
:10068200472B01308316B202031CB303831680305A
:100692003306F00080307002031D512B18303202F5
:1006A200031C552BB201B3010130C9000730CA0047
:1006B2003930CB000D228230FC00DD30FD00FD0B15
:1006C200602BFC0B602B00000000842C83120519A8
:1006D2006D2BEE0A0319EF0A8519732B0130EE0216
:1006E200031CEF0380306F06F00080307002031DA0
:1006F2007C2B3C306E02031C802BEE01EF0180301C
:100702006F06F00080307002031D892B00306E02EC
:1007120003188F2B3B30EE000030EF0001308316C0
:10072200C9000B30CA003630CB000D228230FC00EB
:10073200DD30FD00FD0B9B2BFC0B9B2B0000000012
:10074200842C8230FC00DD30FD00FD0BA62BFC0B5F
:10075200A62B00000000842C83120519B42B8316EB
:10076200B80A0319B90A83128519BC2B0130831602
:10077200B802031CB903831680303906F0008030BA
:100782007002031DC62B20303802031CCC2B013013
:10079200B8000030B90080303906F00080307002B5
:1007A200031DD52B003038020318DB2B1F30B80095
:1007B2000030B9000230C9000730CA004330CB0014
:1007C2000D228230FC00DD30FD00FD0BE62BFC0B20
:1007D200E62B00000000842C83120519F42B8316EB
:1007E200B60A0319B70A83128519FC2B0130831646
:1007F200B602031CB703831680303706F000803040
:100802007002031D062C0D303602031C0C2C013025
:10081200B6000030B70080303706F000803070023A
:10082200031D152C0030360203181B2C0C30B600A9
:100832000030B7000230C9000B30CA004930CB008B
:100842000D228230FC00DD30FD00FD0B262CFC0B5E
:10085200262C00000000842C83120519342C8316E8
:10086200B40A0319B50A831285193C2C0130831688
:10087200B402031CB50383167F30F00080303506C6
:100882007002031D462C3408FF3C031C4C2C6330C1
:10089200B4000030B5008030F000803035067002C0
:1008A200031D552C3408323C0318592CB401B501F0
:1008B2000230C9000F30CA004630CB000D22823010
:1008C200FC00DD30FD00FD0B642CFC0B642C0000F1
:1008D2000000842C83125308013A0319392B530860
:1008E200023A0319672B5308033A0319A22B530840
:1008F200043A0319AD2B5308053A0319ED2B53089B
:0A090200063A03192D2CBD2A852C9E
:1009980020308400403083120313F0008B3083161C
:0A09A800B0000430B1004E22080038
:10091600303430343A342034303430343A342034BD
:06092600303430340034CF
:10092C00303430343A342034303430343A342034A7
:06093C00303430340034B9
:06094200203420340034D3
:06094800203420340034CD
:0E094E0044346134743465343A342034003457
:06095C00203420340034B9
:06096200203420340034B3
:06096800203420340034AD
:0E096E00543469346D3465343A342034003426
:02097C00003445
:0C097E0043344C344F3443344B340034C9
:0A098A004534443449345434003439
:0209940000342D
:02400E004A2F37
:00000001FF
